:020000040800F2
:1000000088040020010100081B1A00085D1900087F
:10001000191A0008D10500080F1D00080000000093
:100020000000000000000000000000001F1A00088F
:10003000D3050008000000001D1A0008211A00085E
:100040001B0100081B0100081B0100081B01000820
:100050001B0100081B0100081B0100081B01000810
:100060001B0100081B0100081B0100081B01000800
:100070001B0100081B0100081B0100081B010008F0
:100080001B0100081B010008090500081B010008EE
:100090001B0100081B0100081B0100081B010008D0
:1000A0001B0100081B0100081B0100081B010008C0
:1000B000CD1A00081B0100081B0100081B010008E5
:1000C0001B0100081B0100081B0100081B010008A0
:1000D0001B0100081B0100081B0100081B01000890
:1000E0001B0100081B0100081B010008DFF80CD0F1
:1000F00000F0F8F900480047511D0008880400206E
:100100000648804706480047FEE7FEE7FEE7FEE7B1
:10011000FEE7FEE7FEE7FEE7FEE7FEE7851A0008DA
:10012000ED000008202A04DB203A21FA02F0002129
:10013000704721FA02F3D040C2F1200291400843F7
:1001400019467047D2B201E000F8012B491EFBD2DC
:1001500070470022F6E710B513460A4604461946D2
:10016000FFF7F0FF204610BD2DE9FE4F804681EAE3
:100170000300C00F0C46009021F0004123F0004521
:10018000B8EB0200A94105D24046214690461C46E4
:100190000B46024623F00040104347D0270DC7F31B
:1001A0000A00C3F30A510290401A019040286BDA0A
:1001B000C3F3130040F4801B0098924620B1002343
:1001C000D2EB030A63EB0B0B01985946C0F14002D6
:1001D000504600F008F906460D4650465946019A29
:1001E00000F010F910EB08006141002487EA115279
:1001F00084EAE7731A4340D0009A62B3019A012A55
:100200004FEA075215DC001B61EB02014FF0004280
:1002100002EA0752CDE90042001C41F58011324646
:100220002B4600F010F903B0BDE8F08F40462146A0
:10023000F9E7001B61EB0201001C41F58013001877
:100240005B412018A2F5001747EB030140EAD57087
:10025000B6196D4111E06D084FEA360645EAC075E2
:100260004FEA0752001B61EB0201001C41F58011AF
:1002700049084FEA30000019514132462B4603B07D
:10028000BDE8F04F00F0D0B80098012240000023F4
:10029000D0EB020263EBE073009821464FEAE07472
:1002A000B8EB000061EB0401E9E783F000435BE792
:1002B00081F0004158E72DE9FE4F81EA030404F084
:1002C000004421F0004100944FF0000B23F0004364
:1002D00050EA01045ED052EA03045BD0C3F30A542F
:1002E000C1F30A552C44A4F2F3340194A0FB025448
:1002F000C1F3130141F48011C3F3130343F48013DA
:1003000001FB024400FB034E840A970A44EA81542D
:1003100047EA8357A4FB076802958D0A05FB07850A
:100320004FEA932C04FB0C542705029D4FEA065814
:1003300047EA1637B5EB08056EEB070C870E920EF1
:1003400047EA811742EA8312A7FB0201B6EB0B01D1
:1003500064EB00042B0D43EA0C335E1844EB1C5095
:10036000DA465146E7FB0201C5F313044FEA0B33AB
:1003700043EA14534FEA0432019C43EA0603A4F112
:100380000C040294009CCDE900B400F05CF803B0CA
:10039000BDE8F08F00200146F9E70EB540F2334189
:1003A00002910021CDE900110A460B4600F04BF8FE
:1003B00003B000BDC1F30A5210B5C1F3130140F2FE
:1003C000FF3341F480119A4201DA002010BD40F25F
:1003D00033439A42A2F2334203DC5242FFF7A2FEB9
:1003E00010BD904010BD202A04DB203A00FA02F133
:1003F000002070479140C2F1200320FA03F3194313
:1004000090407047202A06DBCB17203A41FA02F0D1
:1004100043EAE07306E041FA02F3D040C2F1200261
:10042000914008431946704710B5141E73F100043B
:1004300008DA401C41F1000192185B411A4301D1D6
:1004400020F0010010BD2DE9F04D92469B4611B100
:10045000B1FA81F202E0B0FA80F220329046FFF762
:10046000C2FF04460F4640EA0A0041EA0B01534628
:100470005A46084313D0114653EA010019D0C8F177
:1004800040025046FFF74EFE05460E46504659467E
:100490004246FFF7A8FF084305D0012004E02046AC
:1004A0003946BDE8F08D0020054346EAE0762C434E
:1004B00037430A986305E40AA0EB08000022FD0A0E
:1004C00044EA47540A3002D500200146E9E7010515
:1004D00010196941DDE9084500196941BDE8F04D91
:1004E000A2E70000064C074D06E0E06840F001037B
:1004F00094E8070098471034AC42F6D3FFF7FAFDB2
:10050000681E0008881E0008014800F05CB9000061
:100510001400002070B5044600688168C943C9070B
:100520001CD1816821F00101816000F0DFFB0546EC
:100530000FE000BF00F0DAFB401B022809D9A06AD7
:1005400040F01000A062E06A40F00100E06201208B
:1005500070BD20688068C043C007EBD0002070BD2C
:10056000F8B500260446009600688168C943C907AB
:1005700028D0816841F00101816013481349006867
:10058000B0FBF1F000E0401E00900028FBD100F02D
:10059000ADFB054611E000BF00F0A8FB401B0228A0
:1005A0000BD9A06A40F01000A062E06A40F00100A0
:1005B000E06284F824600120F8BD20688068C043B0
:1005C000C007E9D10020F8BD1000002040420F0014
:1005D000FEE77047F8B500250446009590F8240022
:1005E000012808D0012084F824002046FFF792FF5C
:1005F000060002D04BE00220F8BDA06A20F488502B
:1006000040F00200A062022000F00EFC22490968BE
:10061000B1FBF0F0400000E0401E00900028FBD14C
:100620002046FFF79DFF2068816841F00801816046
:1006300000F05CFB074604E000F058FBC01B0A28F2
:1006400011D8206880680007F6D42068816841F0DE
:100650000401816000F04AFB07460EE000F046FB13
:10066000C01B0A2809D9A06A20F0020040F010003F
:10067000A06284F824500120F8BD206880684007FB
:10068000ECD4A06A20F0020040F00100A06284F8DF
:1006900024503046F8BD00001000002070470000D4
:1006A000F8B50024009490F824202546012A12D0A1
:1006B000012280F824204A681F23072A0DD20668E9
:1006C000776B521E02EB820293409F430B6893406C
:1006D0001F43776319E00220F8BD06680D2A0AD28D
:1006E000376BD21F02EB820293409F430B6893400B
:1006F0001F43376309E0F76A0D3A02EB8202934029
:100700009F430B6893401F43F7620A6807230668FC
:100710000A2A0AD3F7680A3A02EB420293409F433F
:100720008B6893401F43F76008E0376902EB420291
:1007300093409F438B6893401F4337610A68102A98
:1007400001D0112A20D1124B02689A4217D1936826
:100750001B0219D4936843F40003936009681029BD
:1007600012D10C490C4A0968B1FBF2F101EB81018D
:10077000490000E0491E00910029FBD104E0816A94
:1007800041F020018162012480F824502046F8BD08
:10079000002401401000002040420F0010B5006806
:1007A0000449884204D1044800F00AF8034908804B
:1007B00010BD0000002401401400002000000020B3
:1007C0000068C06C704710B504460068416889062F
:1007D00026D50168890723D5A16AC90603D4A16A71
:1007E00041F40071A1628168C1F34241072910D12F
:1007F000217B71B9416821F020014160A06A20F499
:100800008070A062A06AC00403D4A06A40F0010016
:10081000A0622046FFF7C2FF21686FF01200086057
:100820002068416809062ED5016849072BD5A16AC1
:10083000C90603D4A16A41F40051A1628168C1F3E1
:100840000231072909D04168490515D48168C1F3EF
:100850004241072910D1217B71B9416821F0800103
:100860004160A06A20F48050A062A06AC00503D451
:10087000A06A40F00100A0622046FFF70FFF216848
:100880006FF00C0008602068416849060DD50068CB
:10089000C0070AD0A06A40F48030A062204600F071
:1008A00093F821686FF00100086010BD2DE9F04158
:1008B0004FF0000704003D467ED0A06A002628B90C
:1008C000E66284F82460204600F080F82046FFF7B6
:1008D00021FEA16AC90600D420B1A06A40F0100030
:1008E000A06269E0A16A21F4885141F00201A1628D
:1008F0006268E169237B0A4347EA43010A43A1682E
:100900004FF48077B94209D0012907D05FF0000188
:1009100094F814C0BCF1010F02D00AE03946F7E7A1
:10092000F3B1A36A43F02003A362E36A43F0010337
:10093000E3622368D3F804C02CF4694C4CEA010C40
:10094000C3F804C021688B68DFF870C003EA0C03A9
:1009500013438B60A168B9420BD0012909D00CE088
:10096000DFF85CC0A3690CEB43330B4343F4006135
:10097000DFE7218A0D05A5F580152168CB6A23F4F0
:1009800070032B43CB62216889680E4B194091425A
:1009900008D1E662A16A21F0020141F00101A162E1
:1009A000BDE8F081A06A20F0020040F01000A062D3
:1009B000E06A40F00100E0620120F1E7FDF7E1FFAD
:1009C00000E0FFFFFE0E1FFF7047000000B585B07E
:1009D000002100910191029103910068124988421F
:1009E00020D11248816941F400718161816901F46B
:1009F00000710491816941F0040181618069694657
:100A000000F00400049001200090032001900848A9
:100A100000F076F800221146122000F0D3F91220DF
:100A200000F0C2F905B000BD0024014000100240F2
:100A30000008014070B5044690F8240001280DD04C
:100A4000012084F824002046FFF78AFD02004FF0C1
:100A5000000005D084F82400104670BD022070BD4F
:100A6000A16A40F60163994341F48071A162224D6D
:100A700023682249AB4218D10E6816F4702F14D0A7
:100A8000A66A46F48016A6620E68760505D5A66AA3
:100A900026F4005646F48056A662A66AF6040AD5E5
:100AA000E66A26F00606E66206E0A66A26F48016E6
:100AB000A6625E68E9E7E06284F824006FF0020055
:100AC00018602068436843F020034360206883680F
:100AD000C3F34243072B05D1A84208D1096811F49A
:100AE000702F04D0816841F480118160B4E781687F
:100AF00041F4A001F9E7000000280140042401406E
:100B00002DE9F84FDFF8B891002409F1040A0AF141
:100B1000040B23460F270BF1040EC9E00125A54065
:100B20002A40AA427DD1674ED1F804C0ACEB06083A
:100B3000B44532D014DCBCF1030F3AD009DCBCF16F
:100B4000000F2AD0BCF1010F1CD0BCF1020F31D133
:100B50001DE0BCF1110F17D0BCF1120F2AD119E022
:100B6000B8F5881F19D006DCB8F5803F15D0B8F568
:100B7000801F1FD111E0B8F5001F0ED0B8F5041F7B
:100B800018D10AE0CB6815E0CB681B1D12E0CB68DA
:100B900008330FE0CB680C330CE08B682BB1012BD2
:100BA0004FF0080303D0456104E0042302E005612F
:100BB00000E00023FF2A01D8064601E000F1040608
:100BC0004FEA840501D9A5F12005D6F8008007FA7F
:100BD00005FC28EA0C0803FA05F548EA0508C6F8FA
:100BE00000804D68ED0062D5374DAE6946F00106D4
:100BF000AE61AD6924F0030605F001050095334DA3
:100C000006EB050CDCF80850A607360F07FA06F8C5
:100C100025EA0805DFF8B880404503D14FF0000809
:100C200017E044E0DFF8AC80404502D14FF0010806
:100C30000FE0DFF8A480404502D14FF0020808E041
:100C4000DFF89880404502D14FF0030801E04FF0F3
:100C5000040808FA06F848EA0508CCF808804D6848
:100C6000D9F80060ED034D4601D5164300E09643E8
:100C70002E604D68DAF80060AD03554601D5164385
:100C800000E096432E604D68DBF80060ED025D46A3
:100C900001D5164300E096432E604D68DEF80060F3
:100CA000AD02754601D5164300E096432E60641CE4
:100CB0000D682A46E5407FF431AFBDE8F88F0000AB
:100CC000000401400000111000100240000001402B
:100CD00000080140000C01400010014000140140D8
:100CE0000AB1016170470904FBE700000148806810
:100CF0007047000004000020024881680278114417
:100D00008160704704000020074810B5016841F079
:100D100010010160032000F075F8002000F006F8D3
:100D200000F024F8002010BD0020024070B50D4DE9
:100D300004464FF47A712878B1FBF0F00A4909684B
:100D4000B1FBF0F000F0B6FB48B9102C07D200223E
:100D50002146501E00F036F800206C6070BD012066
:100D600070BD000004000020100000200C4808B5F1
:100D7000816941F001018161816901F00101009106
:100D8000C16941F08051C161C06900F0805000909C
:100D90000448416821F0E06141F00071416008BD04
:100DA0000010024000000140002809DB00F01F0293
:100DB000012191404009800000F1E020C0F80011BD
:100DC00070470000F0B40E4B1B680C46C3F30223BF
:100DD000C3F10705042D00D90425191D072901D2E7
:100DE000002300E0DB1E012606FA05F1491E214022
:100DF00099409E40761E16403143F0BC00F088BFFB
:100E00000CED00E0064900F0070208684FF6FF030A
:100E1000184040EA0220034A10430860704700006F
:100E20000CED00E00000FA0510B529A401461DCC28
:100E300086B08DE81D002AA02A4C0068049000208E
:100E4000012923D002293AD010291DD161682268D6
:100E5000D20119D5C1F38342C9031DF8020009D597
:100E6000616804AAC1F34041515C1F4AB2FBF1F131
:100E7000484301E01D4948436168490204D44000E9
:100E80005FF00301B0FBF1F006B010BD226AC2F3BF
:100E90000121012903D1920701D5C803F4E70229F2
:100EA00005D1626A920702D549F64040ECE7032972
:100EB000EAD121688903E7D54FF22440E4E700F046
:100EC00023F96168C1F38131491C4900DAE7000068
:100ED00002030405060708090A0B0C0D0E0F10107B
:100EE000010200000010024000127A0000093D00DB
:100EF0002DE9F84305460078354CC00754D0E06929
:100F00000026C00008D4E06940F08050E061E0694C
:100F1000012600F0805000902E480168C90512D4C7
:100F20000168804641F480710160FFF7DFFE0746EB
:100F300005E000BFFFF7DAFEC01B642823D8D8F80D
:100F40000000C005F6D5206A10F4407021D0A988B1
:100F500001F4407181421CD0206A1F49012220F413
:100F600040700A6000220A602062C00711D0FFF7BB
:100F7000BDFE074641F2883808E000BFFFF7B6FE25
:100F8000C11B414502D90320BDE8F883206A8007D0
:100F9000F4D5206A696820F44070084320621EB1CD
:100FA000E06920F08050E0612878800705D560680E
:100FB000A96820F44040084360602878C00605D541
:100FC0006068E96820F48000084360600020DBE787
:100FD0000010024000700040400442422DE9F047FA
:100FE0000F46050061D0434E306800F00700B8425C
:100FF00009D2306820F0070038433060306800F0D4
:101000000700B84251D128683B4C810712D54007F0
:1010100003D5606840F4E06060602878000703D57D
:10102000606840F4605060606068A96820F0F0007B
:10103000084360602878C00728D06868012810D06D
:101040002168022810D0890700292EDA616821F072
:10105000030101436160FFF749FE804641F2883990
:101060000DE021688903EFE78901EDE7FFF73EFE18
:10107000A0EB0801494502D90320BDE8F08760686C
:10108000696800F00C00B0EB810FEFD1306800F020
:101090000700B8420BD9306820F0070038433060B1
:1010A000306800F00700B84201D00120E5E7287859
:1010B000400705D56068E96820F4E0600843606097
:1010C0002878000706D56068296920F4605040EA56
:1010D000C100606000F028F86168084AC1F303119C
:1010E000515CC8400649086006480068FFF71EFECC
:1010F0000020C2E70020024000100240501E0008FD
:1011000010000020080000200448054900684968D4
:10111000044AC1F3C221515CC8407047100000204E
:1011200000100240601E000812A185B00FC98DE8B2
:101130000F0014A0144A006804905168134801F08D
:101140000C03042B10D0082B0ED1C1F38343C90329
:101150001DF803000AD5516804AAC1F34041515C4F
:101160000A4A5043B0FBF1F005B0704708494843C4
:10117000FAE7000002030405060708090A0B0C0D34
:101180000E0F1010010200000010024000127A0041
:1011900000093D002DE9F84F040070D02078C04DC3
:1011A000C00749D06868C0F38100012807D068688B
:1011B000C0F38100022809D16868C00306D52868F9
:1011C000800339D560680028E7D035E06068B0F565
:1011D000803F0BD010B1B0F5A02F11D0286820F4BB
:1011E00080302860286820F4802002E0286840F4DD
:1011F00080302860606890B1FFF778FD06460AE00D
:10120000286840F480202860F0E700BFFFF76EFDFB
:10121000801B642873D828688003F7D50CE0FFF79B
:1012200065FD064605E000BFFFF760FD801B6428F2
:10123000F0D828688003F7D420789A4E80074FF0C2
:1012400001094FF0000839D5686810F00C0F07D07D
:101250006868C0F38100022809D16868C00306D419
:101260002868800714D52069012808D110E020697A
:10127000B0B1C6F80090FFF739FD074605E00AE176
:10128000FFF734FDC01B0228C4D828688007F7D5B3
:101290002868616920F0F80040EAC10028600DE08C
:1012A000C6F80080FFF722FD074604E0FFF71EFDA9
:1012B000C01B022823D828688007F7D420780007AD
:1012C0002CD57948A169D9B1C0F80090FFF70EFD7F
:1012D000074604E0FFF70AFDC01B02280FD8686A22
:1012E0008007F7D571484FF4FA510068B0FBF1F070
:1012F000009000BF0098411E0091FAD20EE080E0FD
:10130000C0F80080FFF7F2FC074604E0FFF7EEFCB0
:10131000C01B022875D8686A8007F7D42078400778
:1013200060D5E8690027C00008D4E86940F0805023
:10133000E861E869012700F0805000905C4801688E
:10134000C90513D40168834641F480710160FFF739
:10135000CDFC824606E000BFFFF7C8FCA0EB0A0008
:1013600064284ED8DBF80000C005F5D5E0680128F8
:101370000AD008B1052813D0286A20F0010028629D
:10138000286A20F0040002E0286A40F00100286288
:10139000E06841F2883B98B1FFF7A8FC82460BE079
:1013A000286A40F004002862EEE700BFFFF79EFCC9
:1013B000A0EB0A0159455AD8286A8007F6D50CE0F7
:1013C000FFF794FC824605E0FFF790FCA0EB0A01D2
:1013D00059454CD8286A8007F6D41FB1E86920F037
:1013E0008050E861E06988B36968C1F3810102292E
:1013F00044D00228C6F8608004D0FFF777FC04468A
:1014000038E034E0FFF772FC074604E0FFF76EFCBB
:10141000C01B02282BD828688001F7D4206AB0F5B9
:10142000803F05D16868A16820F4003008436860F7
:10143000D4E908010843696821F47411084368601D
:10144000C6F86090FFF752FC044606E025E000BFB6
:10145000FFF74CFC001B022809D828688001F7D54B
:101460001BE000BFFFF742FC001B022802D903204B
:10147000BDE8F88F28688001F4D40EE00128F7D089
:101480006868226A00F48031914204D1616A00F4F4
:101490007010884201D00120EAE70020E8E7000050
:1014A000001002400000424280044242100000202E
:1014B0000070004010B5401EB0F1807F01D30120C4
:1014C00010BD4FF0E02460610F21601700F020FC98
:1014D0000020A06107202061002010BD70477047E8
:1014E00070B590F83C20012A19D0012400F83C4F37
:1014F0000222427050F83C3C5A689D6822F0700607
:101500000A684968324325F0800529435A6050F83B
:101510003C2C9160447000210170084670BD02208F
:1015200070BD10B5040003D094F83D0010B107E081
:10153000012010BD002084F83C00204600F00CF88B
:10154000022084F83D00211D206800F0C5FA01202A
:1015500084F83D00002010BD08B50068B0F1804F50
:1015600012D10A48C16941F00101C161C06900227C
:1015700000F00100009011461C20FFF723FCBDE89D
:1015800008401C20FFF710BC08BD000000100240FE
:1015900070B5044690F83C00012817D0012584F866
:1015A0003C50022084F83D002068826822F07702D7
:1015B00022F47F4282600868502830D00DDC202859
:1015C0004DD005DC98B310283BD148E0022070BD17
:1015D000302844D0402834D139E0602828D0702801
:1015E00006D0B0F5805F2CD0B0F5005F29D10AE0BD
:1015F000CB68D1E90121206800F0B1FA2068816848
:1016000041F0770109E0CB68D1E90121206800F0C1
:10161000A6FA2068816841F48041816011E0CA68BF
:101620004968206800F050FB5021206807E016E070
:10163000CA684968206800F058FB6021206800F003
:1016400098FA84F83D50002084F83C0070BDCA68C8
:101650004968206800F038FB40212068EFE72268E5
:1016600001461046EBE7704770B504460068016913
:101670004FF00005C943890715D4C168C9438907DC
:1016800011D4E91E0161012020772068806980075C
:10169000204602D0FFF7E7FF04E000F0BBF8204649
:1016A00000F03DF9257720680169C943490717D43F
:1016B000C168C943490713D46FF0040101610220D6
:1016C00020772068806910F4407F204602D0FFF721
:1016D000CAFF04E000F09EF8204600F020F92577CC
:1016E00020680169C943090716D4C168C9430907BD
:1016F00012D46FF008010161042020772068C069CE
:101700008007204602D0FFF7AEFF04E000F082F829
:10171000204600F004F9257720680169C943C9060D
:1017200017D4C168C943C90613D46FF01001016111
:10173000082020772068C06910F4407F204602D03E
:10174000FFF791FF04E000F065F8204600F0E7F8AD
:10175000257720680169C943C90708D1C168C94311
:10176000C90704D1891E0161204600F0F5F8206800
:101770000169C943090609D4C168C943090605D4EA
:101780006FF0800101612046FFF7A8FE2068016923
:10179000C943490609D4C168C943490605D46FF055
:1017A00040010161204600F0D8F820680169C94372
:1017B00089060BD4C168C943890607D46FF020019C
:1017C00001612046BDE87040FFF789BE70BD000092
:1017D00000B585B00021009101910291039100684C
:1017E000B0F1804F10D10948816941F00401816155
:1017F0008069694600F00400049002200090019086
:1018000003900348FFF77CF905B000BD00100240CB
:1018100000080140704770B5044690F83C000D4642
:1018200001280DD0012684F83C60022084F83D0098
:1018300042B1042A18D0082A2AD00C2A4DD139E006
:10184000022070BD206800F09DF92068816941F098
:10185000080181612068816921F0040181612068AB
:1018600081692A69114311E0206800F0B3F920680A
:10187000816941F4006181612068816921F480619E
:101880008161206881692A6941EA0221816124E03D
:10189000206800F0CBF92068C16941F00801C161FE
:1018A0002068C16921F00401C1612068C1692A6909
:1018B000114311E0206800F0E5F92068C16941F4A6
:1018C0000061C1612068C16921F48061C161206843
:1018D000C1692A6941EA0221C16184F83D600020A2
:1018E00084F83C0070BD10B5040003D094F83D00AE
:1018F00010B107E0012010BD002084F83C00204614
:1019000000F00CF8022084F83D00211D206800F052
:10191000E3F8012084F83D00002010BD70477047B7
:1019200010B504460068012200F00CF9094920684E
:10193000884203D1416C41F40041416420688168D0
:1019400001F00701062903D0016841F0010101609F
:10195000002010BD002C014070477047FEE70000DA
:101960003EB500240D480094019402940A49846015
:10197000016004730475012505614FF46021446022
:10198000C161FEF793FF02200094CDE90150694642
:101990000248FEF785FE3EBD0024014014000020F1
:1019A00010B58EB000240794089409940A940B94FF
:1019B0001C2168460C94FEF7CCFB16484FF0804182
:1019C00001608F21C0E9011442F21071C0E90314D3
:1019D0008461FFF7A6FD4FF48050079007A90D48DA
:1019E000FFF7D6FD0B48FFF77EFF0B940BA90948C4
:1019F0000C94FFF775FD6020CDE9000402940422E9
:101A0000694604480494FFF706FF0248FFF7E0FE2A
:101A10000EB010BD44000020FEE7704770477047CD
:101A2000FFF76AB930B593B028216846FEF791FBFD
:101A300014210AA8FEF78DFB002401200F941094B6
:101A40001194010412948DE8130004904FF4E010F7
:101A5000CDE90810022507956846FFF79BFB0F208C
:101A6000CDE90A056802CDE90C4002210AA80E94CE
:101A7000FFF7B4FAA80311900F950FA8FFF738FAF3
:101A800013B030BD0D48016841F0010101604168AB
:101A90000B4A1140416001680A4A11400160016827
:101AA00021F480210160416821F4FE0141604FF47E
:101AB0001F0181600449C0030860704700100240A4
:101AC0000000FFF8FFFFF6FE08ED00E00148FFF719
:101AD000CBBD000044000020F0B50268164B174C47
:101AE000174D4FF08047984205D0B84203D0A0422E
:101AF00001D0A84203D122F070064A6832439842CE
:101B000005D0B84203D0A04201D0A84203D122F4AC
:101B10004074CA6822434C6922F08002224302606A
:101B20008A68C2620A688262984201D109690163C7
:101B300001214161F0BD0000002C01400004004083
:101B40000008004010B501F01F030121046A99400C
:101B50008C430462016A9A401143016210BD10B5C2
:101B6000846842EA032224F47F440A4322438260C9
:101B700010BD826822F070020A4342F007018160C2
:101B80007047000030B5026A22F001020262026A68
:101B90004368846924F073050C682C4322F0020525
:101BA0008A682A430A4DA8420BD122F00805CA6868
:101BB00023F440732A434D6922F004021D438B69CC
:101BC0002B434360846149684163026230BD000079
:101BD000002C014030B5026A22F010020262026A53
:101BE000436884690D6824F4E64444EA05248D685A
:101BF00022F0200242EA05120B4DA8420ED1CD6818
:101C000022F0800242EA05124D6923F4406343EA60
:101C100085038D6922F0400243EA850343608461B5
:101C200049688163026230BD002C014030B5026A10
:101C300022F480720262036A4268C46923F400736A
:101C400024F073050C682C438D6843EA05230C4D82
:101C5000A8420ED1CD6823F4006343EA05234D6901
:101C600022F4405242EA05128D6923F4806342EA6D
:101C700005124260C4614968C163036230BD00005F
:101C8000002C014030B5026A22F480520262046ADC
:101C90004268C3690D6823F4E64343EA05238D686F
:101CA00024F4005444EA0534064DA84204D14D6999
:101CB00022F4804242EA85124260C36149680164AD
:101CC000046230BD002C014010B5036A046A24F0A0
:101CD00001040462846924F0F00444EA021423F04D
:101CE0000A020A438461026210BD10B5036A23F040
:101CF000100303628369046A23F4704343EA0232E7
:101D000024F0A00343EA01118261016210BDFEE7E5
:101D10000907090E002804DB00F1E02080F8001418
:101D2000704700F00F0000F1E02080F8141D7047AC
:101D300002E008C8121F08C1002AFAD17047704794
:101D4000002001E001C1121F002AFBD170470000F2
:101D500086B0FEF7D9FFFFF765FE002435480094F2
:101D6000019402940394816941F0200181618169A9
:101D700001F020010491816941F0040181618069D1
:101D80002D4E00F004004FF44065049000222946D7
:101D90003046FEF7A5FF01200095CDE901040320A0
:101DA000039069463046FEF7ABFEFFF7D9FDFFF71B
:101DB000F7FD2248FEF70EFC2048FEF73BFE1F48C9
:101DC00004213030FFF7ACFD1C4FDFF874A0DFF8C2
:101DD00074B01D4C30374FF480684FF400691748D9
:101DE000FEF728FE20880546FEF7D7FA52465B46E6
:101DF000FEF761FA0022154BFEF7B6F9FEF7DAFAA4
:101E000080B26080396888630F2D02D80122414674
:101E10000BE0B5F57F6F01D3012205E000224146BA
:101E20003046FEF75DFF002249463046FEF758FF78
:101E3000D5E7000000100240000801401400002017
:101E4000174850FC1873C73F0000002000406F4047
:101E5000000000000000000001020304060708095A
:101E60000000000001020304881E0008000000209A
:101E700014000000301D00089C1E00081400002003
:101E800074040000401D0008000000000100000074
:0C1E900010000000000000000024F4001E
:04000005080000ED02
:00000001FF
